S00D00004C616230362E73726563A2
S113000045C000005EC100005EC000005CC000008E
S11300105AC0000058C0000056C0000054C0000080
S113002052C0000050C000004EC000004CC0000090
S11300304AC0000048C0000046C0000044C00000A0
S113004013C1000040C000003EC000003CC00000DE
S11300503AC0000038C0000036C0000034C00000C0
S113006032C0000030C000002EC000002CC00000D0
S11300702AC0000028C0000026C0000024C00000E0
S113008022C0000020C000001EC0000011241FBEBA
S1130090CFEFD0E1DEBFCDBF11E0A0E0B1E0E6E3F9
S11300A0F3E000E00BBF02C007900D92A030B1074F
S11300B0D9F721E0A0E0B1E001C01D92A430B2075D
S11300C0E1F702D036C19CCFCF93DF93CDB7DEB733
S11300D08AE390E02FEFFC0120838BE390E02FEF85
S11300E0FC01208383E590E024E0FC01208382E589
S11300F090E02EE8FC01208387E590E021E0FC01FC
S1130100208381E390E021E330E0F90120812E7F18
S1130110FC01208382E390E022E330E0F9012081B6
S11301202160FC0120838AE690E023E0FC01208327
S113013089E590E021E0FC0120837894809101011D
S11301408436E1F71092010180910001882F90E03C
S11301508130910559F1823091051CF4892B49F0C5
S113016082C08230910509F43FC0039709F469C045
S11301707AC080910201873019F41092020105C0FF
S1130180809102018F5F809302018BE390E02091C4
S11301900201422F50E021E030E002C0220F331F61
S11301A04A95E2F72095FC0120835DC0809102010D
S11301B0882321F487E08093020105C08091020125
S11301C08150809302018BE390E020910201422F41
S11301D050E021E030E002C0220F331F4A95E2F7DD
S11301E02095FC0120833FC080910201873011F4E7
S11301F01092030180910201882319F481E0809315
S1130200030180910301813031F4809102018F5FF9
S11302108093020105C08091020181508093020104
S11302208BE390E020910201422F50E021E030E086
S113023002C0220F331F4A95E2F72095FC01208368
S113024012C08BE390E0FC018081882321F48BE3CE
S113025090E0FC0180818BE390E0FC01208121503F
S1130260FC01208300006ACF1F920F9200905F0070
S11302700F92112400905B000F922F938F939F9302
S1130280EF93FF93CF93DF93CDB7DEB78091010156
S11302908F5F8093010182E590E02EE8FC012083CA
S11302A00000DF91CF91FF91EF919F918F912F915A
S11302B00F9000925B000F9000925F000F901F90D0
S11302C018951F920F9200905F000F9211240090D6
S11302D05B000F922F938F939F93EF93FF93CF9392
S11302E0DF93CDB7DEB7809100018F5F809300016B
S11302F080910001843019F41092000109C08091AA
S11303000001833029F48BE390E02FEFFC0120837C
S11303100000DF91CF91FF91EF919F918F912F91E9
S11303200F9000925B000F9000925F000F901F905F
S10903301895F894FFCFBC
S9030000FC
